{
  "_format": "hh-sol-artifact-1",
  "contractName": "AceHacks",
  "sourceName": "contracts/registration.sol",
  "abi": [
    {
      "inputs": [],
      "stateMutability": "nonpayable",
      "type": "constructor"
    },
    {
      "inputs": [
        {
          "internalType": "address",
          "name": "sender",
          "type": "address"
        },
        {
          "internalType": "uint256",
          "name": "tokenId",
          "type": "uint256"
        },
        {
          "internalType": "address",
          "name": "owner",
          "type": "address"
        }
      ],
      "name": "ERC721IncorrectOwner",
      "type": "error"
    },
    {
      "inputs": [
        {
          "internalType": "address",
          "name": "operator",
          "type": "address"
        },
        {
          "internalType": "uint256",
          "name": "tokenId",
          "type": "uint256"
        }
      ],
      "name": "ERC721InsufficientApproval",
      "type": "error"
    },
    {
      "inputs": [
        {
          "internalType": "address",
          "name": "approver",
          "type": "address"
        }
      ],
      "name": "ERC721InvalidApprover",
      "type": "error"
    },
    {
      "inputs": [
        {
          "internalType": "address",
          "name": "operator",
          "type": "address"
        }
      ],
      "name": "ERC721InvalidOperator",
      "type": "error"
    },
    {
      "inputs": [
        {
          "internalType": "address",
          "name": "owner",
          "type": "address"
        }
      ],
      "name": "ERC721InvalidOwner",
      "type": "error"
    },
    {
      "inputs": [
        {
          "internalType": "address",
          "name": "receiver",
          "type": "address"
        }
      ],
      "name": "ERC721InvalidReceiver",
      "type": "error"
    },
    {
      "inputs": [
        {
          "internalType": "address",
          "name": "sender",
          "type": "address"
        }
      ],
      "name": "ERC721InvalidSender",
      "type": "error"
    },
    {
      "inputs": [
        {
          "internalType": "uint256",
          "name": "tokenId",
          "type": "uint256"
        }
      ],
      "name": "ERC721NonexistentToken",
      "type": "error"
    },
    {
      "inputs": [
        {
          "internalType": "address",
          "name": "owner",
          "type": "address"
        }
      ],
      "name": "OwnableInvalidOwner",
      "type": "error"
    },
    {
      "inputs": [
        {
          "internalType": "address",
          "name": "account",
          "type": "address"
        }
      ],
      "name": "OwnableUnauthorizedAccount",
      "type": "error"
    },
    {
      "anonymous": false,
      "inputs": [
        {
          "indexed": true,
          "internalType": "address",
          "name": "owner",
          "type": "address"
        },
        {
          "indexed": true,
          "internalType": "address",
          "name": "approved",
          "type": "address"
        },
        {
          "indexed": true,
          "internalType": "uint256",
          "name": "tokenId",
          "type": "uint256"
        }
      ],
      "name": "Approval",
      "type": "event"
    },
    {
      "anonymous": false,
      "inputs": [
        {
          "indexed": true,
          "internalType": "address",
          "name": "owner",
          "type": "address"
        },
        {
          "indexed": true,
          "internalType": "address",
          "name": "operator",
          "type": "address"
        },
        {
          "indexed": false,
          "internalType": "bool",
          "name": "approved",
          "type": "bool"
        }
      ],
      "name": "ApprovalForAll",
      "type": "event"
    },
    {
      "anonymous": false,
      "inputs": [
        {
          "indexed": true,
          "internalType": "address",
          "name": "previousOwner",
          "type": "address"
        },
        {
          "indexed": true,
          "internalType": "address",
          "name": "newOwner",
          "type": "address"
        }
      ],
      "name": "OwnershipTransferred",
      "type": "event"
    },
    {
      "anonymous": false,
      "inputs": [
        {
          "indexed": false,
          "internalType": "uint256",
          "name": "tokenId",
          "type": "uint256"
        },
        {
          "indexed": false,
          "internalType": "string",
          "name": "ULPIN",
          "type": "string"
        },
        {
          "indexed": false,
          "internalType": "string",
          "name": "name",
          "type": "string"
        },
        {
          "indexed": false,
          "internalType": "uint256",
          "name": "contact",
          "type": "uint256"
        },
        {
          "indexed": false,
          "internalType": "uint256",
          "name": "aadharNumber",
          "type": "uint256"
        },
        {
          "indexed": false,
          "internalType": "string",
          "name": "plotNo",
          "type": "string"
        },
        {
          "indexed": false,
          "internalType": "string",
          "name": "propAddress",
          "type": "string"
        }
      ],
      "name": "Registered",
      "type": "event"
    },
    {
      "anonymous": false,
      "inputs": [
        {
          "indexed": true,
          "internalType": "address",
          "name": "from",
          "type": "address"
        },
        {
          "indexed": true,
          "internalType": "address",
          "name": "to",
          "type": "address"
        },
        {
          "indexed": true,
          "internalType": "uint256",
          "name": "tokenId",
          "type": "uint256"
        }
      ],
      "name": "Transfer",
      "type": "event"
    },
    {
      "inputs": [
        {
          "internalType": "string",
          "name": "_ULPIN",
          "type": "string"
        },
        {
          "internalType": "string",
          "name": "_name",
          "type": "string"
        },
        {
          "internalType": "uint256",
          "name": "_contact",
          "type": "uint256"
        },
        {
          "internalType": "uint256",
          "name": "_aadharNumber",
          "type": "uint256"
        },
        {
          "internalType": "string",
          "name": "_plotNo",
          "type": "string"
        },
        {
          "internalType": "string",
          "name": "_propAddress",
          "type": "string"
        }
      ],
      "name": "addToRegister",
      "outputs": [],
      "stateMutability": "nonpayable",
      "type": "function"
    },
    {
      "inputs": [
        {
          "internalType": "address",
          "name": "to",
          "type": "address"
        },
        {
          "internalType": "uint256",
          "name": "tokenId",
          "type": "uint256"
        }
      ],
      "name": "approve",
      "outputs": [],
      "stateMutability": "nonpayable",
      "type": "function"
    },
    {
      "inputs": [
        {
          "internalType": "address",
          "name": "owner",
          "type": "address"
        }
      ],
      "name": "balanceOf",
      "outputs": [
        {
          "internalType": "uint256",
          "name": "",
          "type": "uint256"
        }
      ],
      "stateMutability": "view",
      "type": "function"
    },
    {
      "inputs": [],
      "name": "getAllIndividuals",
      "outputs": [
        {
          "components": [
            {
              "internalType": "string",
              "name": "ULPIN",
              "type": "string"
            },
            {
              "internalType": "string",
              "name": "name",
              "type": "string"
            },
            {
              "internalType": "uint256",
              "name": "contact",
              "type": "uint256"
            },
            {
              "internalType": "uint256",
              "name": "aadharNumber",
              "type": "uint256"
            },
            {
              "internalType": "string",
              "name": "plotNo",
              "type": "string"
            },
            {
              "internalType": "string",
              "name": "propAddress",
              "type": "string"
            }
          ],
          "internalType": "struct AceHacks.Individual[]",
          "name": "",
          "type": "tuple[]"
        }
      ],
      "stateMutability": "view",
      "type": "function"
    },
    {
      "inputs": [
        {
          "internalType": "uint256",
          "name": "tokenId",
          "type": "uint256"
        }
      ],
      "name": "getApproved",
      "outputs": [
        {
          "internalType": "address",
          "name": "",
          "type": "address"
        }
      ],
      "stateMutability": "view",
      "type": "function"
    },
    {
      "inputs": [
        {
          "internalType": "uint256",
          "name": "",
          "type": "uint256"
        }
      ],
      "name": "individuals",
      "outputs": [
        {
          "internalType": "string",
          "name": "ULPIN",
          "type": "string"
        },
        {
          "internalType": "string",
          "name": "name",
          "type": "string"
        },
        {
          "internalType": "uint256",
          "name": "contact",
          "type": "uint256"
        },
        {
          "internalType": "uint256",
          "name": "aadharNumber",
          "type": "uint256"
        },
        {
          "internalType": "string",
          "name": "plotNo",
          "type": "string"
        },
        {
          "internalType": "string",
          "name": "propAddress",
          "type": "string"
        }
      ],
      "stateMutability": "view",
      "type": "function"
    },
    {
      "inputs": [
        {
          "internalType": "address",
          "name": "owner",
          "type": "address"
        },
        {
          "internalType": "address",
          "name": "operator",
          "type": "address"
        }
      ],
      "name": "isApprovedForAll",
      "outputs": [
        {
          "internalType": "bool",
          "name": "",
          "type": "bool"
        }
      ],
      "stateMutability": "view",
      "type": "function"
    },
    {
      "inputs": [],
      "name": "name",
      "outputs": [
        {
          "internalType": "string",
          "name": "",
          "type": "string"
        }
      ],
      "stateMutability": "view",
      "type": "function"
    },
    {
      "inputs": [],
      "name": "owner",
      "outputs": [
        {
          "internalType": "address",
          "name": "",
          "type": "address"
        }
      ],
      "stateMutability": "view",
      "type": "function"
    },
    {
      "inputs": [
        {
          "internalType": "uint256",
          "name": "tokenId",
          "type": "uint256"
        }
      ],
      "name": "ownerOf",
      "outputs": [
        {
          "internalType": "address",
          "name": "",
          "type": "address"
        }
      ],
      "stateMutability": "view",
      "type": "function"
    },
    {
      "inputs": [],
      "name": "renounceOwnership",
      "outputs": [],
      "stateMutability": "nonpayable",
      "type": "function"
    },
    {
      "inputs": [
        {
          "internalType": "address",
          "name": "from",
          "type": "address"
        },
        {
          "internalType": "address",
          "name": "to",
          "type": "address"
        },
        {
          "internalType": "uint256",
          "name": "tokenId",
          "type": "uint256"
        }
      ],
      "name": "safeTransferFrom",
      "outputs": [],
      "stateMutability": "nonpayable",
      "type": "function"
    },
    {
      "inputs": [
        {
          "internalType": "address",
          "name": "from",
          "type": "address"
        },
        {
          "internalType": "address",
          "name": "to",
          "type": "address"
        },
        {
          "internalType": "uint256",
          "name": "tokenId",
          "type": "uint256"
        },
        {
          "internalType": "bytes",
          "name": "data",
          "type": "bytes"
        }
      ],
      "name": "safeTransferFrom",
      "outputs": [],
      "stateMutability": "nonpayable",
      "type": "function"
    },
    {
      "inputs": [
        {
          "internalType": "address",
          "name": "operator",
          "type": "address"
        },
        {
          "internalType": "bool",
          "name": "approved",
          "type": "bool"
        }
      ],
      "name": "setApprovalForAll",
      "outputs": [],
      "stateMutability": "nonpayable",
      "type": "function"
    },
    {
      "inputs": [
        {
          "internalType": "bytes4",
          "name": "interfaceId",
          "type": "bytes4"
        }
      ],
      "name": "supportsInterface",
      "outputs": [
        {
          "internalType": "bool",
          "name": "",
          "type": "bool"
        }
      ],
      "stateMutability": "view",
      "type": "function"
    },
    {
      "inputs": [],
      "name": "symbol",
      "outputs": [
        {
          "internalType": "string",
          "name": "",
          "type": "string"
        }
      ],
      "stateMutability": "view",
      "type": "function"
    },
    {
      "inputs": [
        {
          "internalType": "uint256",
          "name": "tokenId",
          "type": "uint256"
        }
      ],
      "name": "tokenURI",
      "outputs": [
        {
          "internalType": "string",
          "name": "",
          "type": "string"
        }
      ],
      "stateMutability": "view",
      "type": "function"
    },
    {
      "inputs": [],
      "name": "totalIndividuals",
      "outputs": [
        {
          "internalType": "uint256",
          "name": "",
          "type": "uint256"
        }
      ],
      "stateMutability": "view",
      "type": "function"
    },
    {
      "inputs": [
        {
          "internalType": "address",
          "name": "from",
          "type": "address"
        },
        {
          "internalType": "address",
          "name": "to",
          "type": "address"
        },
        {
          "internalType": "uint256",
          "name": "tokenId",
          "type": "uint256"
        }
      ],
      "name": "transferFrom",
      "outputs": [],
      "stateMutability": "nonpayable",
      "type": "function"
    },
    {
      "inputs": [
        {
          "internalType": "address",
          "name": "newOwner",
          "type": "address"
        }
      ],
      "name": "transferOwnership",
      "outputs": [],
      "stateMutability": "nonpayable",
      "type": "function"
    }
  ],
  "bytecode": "0x60806040523480156200001157600080fd5b50336040518060400160405280600f81526020017f526567697374726174696f6e4e465400000000000000000000000000000000008152506040518060400160405280600381526020017f5245470000000000000000000000000000000000000000000000000000000000815250816000908162000090919062000472565b508060019081620000a2919062000472565b505050600073ffffffffffffffffffffffffffffffffffffffff168173ffffffffffffffffffffffffffffffffffffffff16036200011a5760006040517f1e4fbdf70000000000000000000000000000000000000000000000000000000081526004016200011191906200059e565b60405180910390fd5b6200012b816200013260201b60201c565b50620005bb565b6000600660009054906101000a900473ffffffffffffffffffffffffffffffffffffffff16905081600660006101000a81548173ffffffffffffffffffffffffffffffffffffffff021916908373ffffffffffffffffffffffffffffffffffffffff1602179055508173ffffffffffffffffffffffffffffffffffffffff168173ffffffffffffffffffffffffffffffffffffffff167f8be0079c531659141344cd1fd0a4f28419497f9722a3daafe3b4186f6b6457e060405160405180910390a35050565b600081519050919050565b7f4e487b7100000000000000000000000000000000000000000000000000000000600052604160045260246000fd5b7f4e487b7100000000000000000000000000000000000000000000000000000000600052602260045260246000fd5b600060028204905060018216806200027a57607f821691505b60208210810362000290576200028f62000232565b5b50919050565b60008190508160005260206000209050919050565b60006020601f8301049050919050565b600082821b905092915050565b600060088302620002fa7fffffffffffffffffffffffffffffffffffffffffffffffffffffffffffffffff82620002bb565b620003068683620002bb565b95508019841693508086168417925050509392505050565b6000819050919050565b6000819050919050565b6000620003536200034d62000347846200031e565b62000328565b6200031e565b9050919050565b6000819050919050565b6200036f8362000332565b620003876200037e826200035a565b848454620002c8565b825550505050565b600090565b6200039e6200038f565b620003ab81848462000364565b505050565b5b81811015620003d357620003c760008262000394565b600181019050620003b1565b5050565b601f8211156200042257620003ec8162000296565b620003f784620002ab565b8101602085101562000407578190505b6200041f6200041685620002ab565b830182620003b0565b50505b505050565b600082821c905092915050565b6000620004476000198460080262000427565b1980831691505092915050565b600062000462838362000434565b9150826002028217905092915050565b6200047d82620001f8565b67ffffffffffffffff81111562000499576200049862000203565b5b620004a5825462000261565b620004b2828285620003d7565b600060209050601f831160018114620004ea5760008415620004d5578287015190505b620004e1858262000454565b86555062000551565b601f198416620004fa8662000296565b60005b828110156200052457848901518255600182019150602085019450602081019050620004fd565b8683101562000544578489015162000540601f89168262000434565b8355505b6001600288020188555050505b505050505050565b600073ffffffffffffffffffffffffffffffffffffffff82169050919050565b6000620005868262000559565b9050919050565b620005988162000579565b82525050565b6000602082019050620005b560008301846200058d565b92915050565b612f8380620005cb6000396000f3fe608060405234801561001057600080fd5b506004361061012c5760003560e01c806368350c0a116100ad578063a22cb46511610071578063a22cb46514610336578063b88d4fde14610352578063c87b56dd1461036e578063e985e9c51461039e578063f2fde38b146103ce5761012c565b806368350c0a146102a257806370a08231146102c0578063715018a6146102f05780638da5cb5b146102fa57806395d89b41146103185761012c565b806323b872dd116100f457806323b872dd146101e95780633bf4924b1461020557806342842e0e146102215780636352211e1461023d57806366542aa71461026d5761012c565b806301ffc9a71461013157806305845c691461016157806306fdde031461017f578063081812fc1461019d578063095ea7b3146101cd575b600080fd5b61014b60048036038101906101469190611ff4565b6103ea565b604051610158919061203c565b60405180910390f35b6101696104cc565b6040516101769190612070565b60405180910390f35b6101876104d2565b604051610194919061211b565b60405180910390f35b6101b760048036038101906101b29190612169565b610564565b6040516101c491906121d7565b60405180910390f35b6101e760048036038101906101e2919061221e565b610580565b005b61020360048036038101906101fe919061225e565b610596565b005b61021f600480360381019061021a91906123e6565b610698565b005b61023b6004803603810190610236919061225e565b6107ce565b005b61025760048036038101906102529190612169565b6107ee565b60405161026491906121d7565b60405180910390f35b61028760048036038101906102829190612169565b610800565b604051610299969594939291906124e3565b60405180910390f35b6102aa610a5c565b6040516102b79190612719565b60405180910390f35b6102da60048036038101906102d5919061273b565b610d84565b6040516102e79190612070565b60405180910390f35b6102f8610e3e565b005b610302610e52565b60405161030f91906121d7565b60405180910390f35b610320610e7c565b60405161032d919061211b565b60405180910390f35b610350600480360381019061034b9190612794565b610f0e565b005b61036c60048036038101906103679190612875565b610f24565b005b61038860048036038101906103839190612169565b610f41565b604051610395919061211b565b60405180910390f35b6103b860048036038101906103b391906128f8565b610faa565b6040516103c5919061203c565b60405180910390f35b6103e860048036038101906103e3919061273b565b61103e565b005b60007f80ac58cd000000000000000000000000000000000000000000000000000000007bffffffffffffffffffffffffffffffffffffffffffffffffffffffff1916827bffffffffffffffffffffffffffffffffffffffffffffffffffffffff191614806104b557507f5b5e139f000000000000000000000000000000000000000000000000000000007bffffffffffffffffffffffffffffffffffffffffffffffffffffffff1916827bffffffffffffffffffffffffffffffffffffffffffffffffffffffff1916145b806104c557506104c4826110c4565b5b9050919050565b60085481565b6060600080546104e190612967565b80601f016020809104026020016040519081016040528092919081815260200182805461050d90612967565b801561055a5780601f1061052f5761010080835404028352916020019161055a565b820191906000526020600020905b81548152906001019060200180831161053d57829003601f168201915b5050505050905090565b600061056f8261112e565b50610579826111b6565b9050919050565b610592828261058d6111f3565b6111fb565b5050565b600073ffffffffffffffffffffffffffffffffffffffff168273ffffffffffffffffffffffffffffffffffffffff16036106085760006040517f64a0ae920000000000000000000000000000000000000000000000000000000081526004016105ff91906121d7565b60405180910390fd5b600061061c83836106176111f3565b61120d565b90508373ffffffffffffffffffffffffffffffffffffffff168173ffffffffffffffffffffffffffffffffffffffff1614610692578382826040517f64283d7b00000000000000000000000000000000000000000000000000000000815260040161068993929190612998565b60405180910390fd5b50505050565b600060016008546106a991906129fe565b90506106b53382611427565b60006040518060c001604052808981526020018881526020018781526020018681526020018581526020018481525090508060076000848152602001908152602001600020600082015181600001908161070f9190612bde565b5060208201518160010190816107259190612bde565b506040820151816002015560608201518160030155608082015181600401908161074f9190612bde565b5060a08201518160050190816107659190612bde565b509050506008600081548092919061077c90612cb0565b91905055507f4f788f97221537aae2176a837e35bad7b7fe48e58eb60872b0b5486d038c619c828989898989896040516107bc9796959493929190612cf8565b60405180910390a15050505050505050565b6107e983838360405180602001604052806000815250610f24565b505050565b60006107f98261112e565b9050919050565b600760205280600052604060002060009150905080600001805461082390612967565b80601f016020809104026020016040519081016040528092919081815260200182805461084f90612967565b801561089c5780601f106108715761010080835404028352916020019161089c565b820191906000526020600020905b81548152906001019060200180831161087f57829003601f168201915b5050505050908060010180546108b190612967565b80601f01602080910402602001604051908101604052809291908181526020018280546108dd90612967565b801561092a5780601f106108ff5761010080835404028352916020019161092a565b820191906000526020600020905b81548152906001019060200180831161090d57829003601f168201915b50505050509080600201549080600301549080600401805461094b90612967565b80601f016020809104026020016040519081016040528092919081815260200182805461097790612967565b80156109c45780601f10610999576101008083540402835291602001916109c4565b820191906000526020600020905b8154815290600101906020018083116109a757829003601f168201915b5050505050908060050180546109d990612967565b80601f0160208091040260200160405190810160405280929190818152602001828054610a0590612967565b8015610a525780601f10610a2757610100808354040283529160200191610a52565b820191906000526020600020905b815481529060010190602001808311610a3557829003601f168201915b5050505050905086565b6060600060085467ffffffffffffffff811115610a7c57610a7b6122bb565b5b604051908082528060200260200182016040528015610ab557816020015b610aa2611f52565b815260200190600190039081610a9a5790505b50905060005b600854811015610d7c5760076000600183610ad691906129fe565b81526020019081526020016000206040518060c0016040529081600082018054610aff90612967565b80601f0160208091040260200160405190810160405280929190818152602001828054610b2b90612967565b8015610b785780601f10610b4d57610100808354040283529160200191610b78565b820191906000526020600020905b815481529060010190602001808311610b5b57829003601f168201915b50505050508152602001600182018054610b9190612967565b80601f0160208091040260200160405190810160405280929190818152602001828054610bbd90612967565b8015610c0a5780601f10610bdf57610100808354040283529160200191610c0a565b820191906000526020600020905b815481529060010190602001808311610bed57829003601f168201915b505050505081526020016002820154815260200160038201548152602001600482018054610c3790612967565b80601f0160208091040260200160405190810160405280929190818152602001828054610c6390612967565b8015610cb05780601f10610c8557610100808354040283529160200191610cb0565b820191906000526020600020905b815481529060010190602001808311610c9357829003601f168201915b50505050508152602001600582018054610cc990612967565b80601f0160208091040260200160405190810160405280929190818152602001828054610cf590612967565b8015610d425780601f10610d1757610100808354040283529160200191610d42565b820191906000526020600020905b815481529060010190602001808311610d2557829003601f168201915b505050505081525050828281518110610d5e57610d5d612d83565b5b60200260200101819052508080610d7490612cb0565b915050610abb565b508091505090565b60008073ffffffffffffffffffffffffffffffffffffffff168273ffffffffffffffffffffffffffffffffffffffff1603610df75760006040517f89c62b64000000000000000000000000000000000000000000000000000000008152600401610dee91906121d7565b60405180910390fd5b600360008373ffffffffffffffffffffffffffffffffffffffff1673ffffffffffffffffffffffffffffffffffffffff168152602001908152602001600020549050919050565b610e46611520565b610e5060006115a7565b565b6000600660009054906101000a900473ffffffffffffffffffffffffffffffffffffffff16905090565b606060018054610e8b90612967565b80601f0160208091040260200160405190810160405280929190818152602001828054610eb790612967565b8015610f045780601f10610ed957610100808354040283529160200191610f04565b820191906000526020600020905b815481529060010190602001808311610ee757829003601f168201915b5050505050905090565b610f20610f196111f3565b838361166d565b5050565b610f2f848484610596565b610f3b848484846117dc565b50505050565b6060610f4c8261112e565b506000610f57611993565b90506000815111610f775760405180602001604052806000815250610fa2565b80610f81846119aa565b604051602001610f92929190612dee565b6040516020818303038152906040525b915050919050565b6000600560008473ffffffffffffffffffffffffffffffffffffffff1673ffffffffffffffffffffffffffffffffffffffff16815260200190815260200160002060008373ffffffffffffffffffffffffffffffffffffffff1673ffffffffffffffffffffffffffffffffffffffff16815260200190815260200160002060009054906101000a900460ff16905092915050565b611046611520565b600073ffffffffffffffffffffffffffffffffffffffff168173ffffffffffffffffffffffffffffffffffffffff16036110b85760006040517f1e4fbdf70000000000000000000000000000000000000000000000000000000081526004016110af91906121d7565b60405180910390fd5b6110c1816115a7565b50565b60007f01ffc9a7000000000000000000000000000000000000000000000000000000007bffffffffffffffffffffffffffffffffffffffffffffffffffffffff1916827bffffffffffffffffffffffffffffffffffffffffffffffffffffffff1916149050919050565b60008061113a83611a78565b9050600073ffffffffffffffffffffffffffffffffffffffff168173ffffffffffffffffffffffffffffffffffffffff16036111ad57826040517f7e2732890000000000000000000000000000000000000000000000000000000081526004016111a49190612070565b60405180910390fd5b80915050919050565b60006004600083815260200190815260200160002060009054906101000a900473ffffffffffffffffffffffffffffffffffffffff169050919050565b600033905090565b6112088383836001611ab5565b505050565b60008061121984611a78565b9050600073ffffffffffffffffffffffffffffffffffffffff168373ffffffffffffffffffffffffffffffffffffffff161461125b5761125a818486611c7a565b5b600073ffffffffffffffffffffffffffffffffffffffff168173ffffffffffffffffffffffffffffffffffffffff16146112ec5761129d600085600080611ab5565b6001600360008373ffffffffffffffffffffffffffffffffffffffff1673ffffffffffffffffffffffffffffffffffffffff168152602001908152602001600020600082825403925050819055505b600073ffffffffffffffffffffffffffffffffffffffff168573ffffffffffffffffffffffffffffffffffffffff161461136f576001600360008773ffffffffffffffffffffffffffffffffffffffff1673ffffffffffffffffffffffffffffffffffffffff168152602001908152602001600020600082825401925050819055505b846002600086815260200190815260200160002060006101000a81548173ffffffffffffffffffffffffffffffffffffffff021916908373ffffffffffffffffffffffffffffffffffffffff160217905550838573ffffffffffffffffffffffffffffffffffffffff168273ffffffffffffffffffffffffffffffffffffffff167fddf252ad1be2c89b69c2b068fc378daa952ba7f163c4a11628f55a4df523b3ef60405160405180910390a4809150509392505050565b600073ffffffffffffffffffffffffffffffffffffffff168273ffffffffffffffffffffffffffffffffffffffff16036114995760006040517f64a0ae9200000000000000000000000000000000000000000000000000000000815260040161149091906121d7565b60405180910390fd5b60006114a78383600061120d565b9050600073ffffffffffffffffffffffffffffffffffffffff168173ffffffffffffffffffffffffffffffffffffffff161461151b5760006040517f73c6ac6e00000000000000000000000000000000000000000000000000000000815260040161151291906121d7565b60405180910390fd5b505050565b6115286111f3565b73ffffffffffffffffffffffffffffffffffffffff16611546610e52565b73ffffffffffffffffffffffffffffffffffffffff16146115a5576115696111f3565b6040517f118cdaa700000000000000000000000000000000000000000000000000000000815260040161159c91906121d7565b60405180910390fd5b565b6000600660009054906101000a900473ffffffffffffffffffffffffffffffffffffffff16905081600660006101000a81548173ffffffffffffffffffffffffffffffffffffffff021916908373ffffffffffffffffffffffffffffffffffffffff1602179055508173ffffffffffffffffffffffffffffffffffffffff168173ffffffffffffffffffffffffffffffffffffffff167f8be0079c531659141344cd1fd0a4f28419497f9722a3daafe3b4186f6b6457e060405160405180910390a35050565b600073ffffffffffffffffffffffffffffffffffffffff168273ffffffffffffffffffffffffffffffffffffffff16036116de57816040517f5b08ba180000000000000000000000000000000000000000000000000000000081526004016116d591906121d7565b60405180910390fd5b80600560008573ffffffffffffffffffffffffffffffffffffffff1673ffffffffffffffffffffffffffffffffffffffff16815260200190815260200160002060008473ffffffffffffffffffffffffffffffffffffffff1673ffffffffffffffffffffffffffffffffffffffff16815260200190815260200160002060006101000a81548160ff0219169083151502179055508173ffffffffffffffffffffffffffffffffffffffff168373ffffffffffffffffffffffffffffffffffffffff167f17307eab39ab6107e8899845ad3d59bd9653f200f220920489ca2b5937696c31836040516117cf919061203c565b60405180910390a3505050565b60008373ffffffffffffffffffffffffffffffffffffffff163b111561198d578273ffffffffffffffffffffffffffffffffffffffff1663150b7a026118206111f3565b8685856040518563ffffffff1660e01b81526004016118429493929190612e67565b6020604051808303816000875af192505050801561187e57506040513d601f19601f8201168201806040525081019061187b9190612ec8565b60015b611902573d80600081146118ae576040519150601f19603f3d011682016040523d82523d6000602084013e6118b3565b606091505b5060008151036118fa57836040517f64a0ae920000000000000000000000000000000000000000000000000000000081526004016118f191906121d7565b60405180910390fd5b805181602001fd5b63150b7a0260e01b7bffffffffffffffffffffffffffffffffffffffffffffffffffffffff1916817bffffffffffffffffffffffffffffffffffffffffffffffffffffffff19161461198b57836040517f64a0ae9200000000000000000000000000000000000000000000000000000000815260040161198291906121d7565b60405180910390fd5b505b50505050565b606060405180602001604052806000815250905090565b6060600060016119b984611d3e565b01905060008167ffffffffffffffff8111156119d8576119d76122bb565b5b6040519080825280601f01601f191660200182016040528015611a0a5781602001600182028036833780820191505090505b509050600082602001820190505b600115611a6d578080600190039150507f3031323334353637383961626364656600000000000000000000000000000000600a86061a8153600a8581611a6157611a60612ef5565b5b04945060008503611a18575b819350505050919050565b60006002600083815260200190815260200160002060009054906101000a900473ffffffffffffffffffffffffffffffffffffffff169050919050565b8080611aee5750600073ffffffffffffffffffffffffffffffffffffffff168273ffffffffffffffffffffffffffffffffffffffff1614155b15611c22576000611afe8461112e565b9050600073ffffffffffffffffffffffffffffffffffffffff168373ffffffffffffffffffffffffffffffffffffffff1614158015611b6957508273ffffffffffffffffffffffffffffffffffffffff168173ffffffffffffffffffffffffffffffffffffffff1614155b8015611b7c5750611b7a8184610faa565b155b15611bbe57826040517fa9fbf51f000000000000000000000000000000000000000000000000000000008152600401611bb591906121d7565b60405180910390fd5b8115611c2057838573ffffffffffffffffffffffffffffffffffffffff168273ffffffffffffffffffffffffffffffffffffffff167f8c5be1e5ebec7d5bd14f71427d1e84f3dd0314c0f7b2291e5b200ac8c7c3b92560405160405180910390a45b505b836004600085815260200190815260200160002060006101000a81548173ffffffffffffffffffffffffffffffffffffffff021916908373ffffffffffffffffffffffffffffffffffffffff16021790555050505050565b611c85838383611e91565b611d3957600073ffffffffffffffffffffffffffffffffffffffff168373ffffffffffffffffffffffffffffffffffffffff1603611cfa57806040517f7e273289000000000000000000000000000000000000000000000000000000008152600401611cf19190612070565b60405180910390fd5b81816040517f177e802f000000000000000000000000000000000000000000000000000000008152600401611d30929190612f24565b60405180910390fd5b505050565b600080600090507a184f03e93ff9f4daa797ed6e38ed64bf6a1f0100000000000000008310611d9c577a184f03e93ff9f4daa797ed6e38ed64bf6a1f0100000000000000008381611d9257611d91612ef5565b5b0492506040810190505b6d04ee2d6d415b85acef81000000008310611dd9576d04ee2d6d415b85acef81000000008381611dcf57611dce612ef5565b5b0492506020810190505b662386f26fc100008310611e0857662386f26fc100008381611dfe57611dfd612ef5565b5b0492506010810190505b6305f5e1008310611e31576305f5e1008381611e2757611e26612ef5565b5b0492506008810190505b6127108310611e56576127108381611e4c57611e4b612ef5565b5b0492506004810190505b60648310611e795760648381611e6f57611e6e612ef5565b5b0492506002810190505b600a8310611e88576001810190505b80915050919050565b60008073ffffffffffffffffffffffffffffffffffffffff168373ffffffffffffffffffffffffffffffffffffffff1614158015611f4957508273ffffffffffffffffffffffffffffffffffffffff168473ffffffffffffffffffffffffffffffffffffffff161480611f0a5750611f098484610faa565b5b80611f4857508273ffffffffffffffffffffffffffffffffffffffff16611f30836111b6565b73ffffffffffffffffffffffffffffffffffffffff16145b5b90509392505050565b6040518060c001604052806060815260200160608152602001600081526020016000815260200160608152602001606081525090565b6000604051905090565b600080fd5b600080fd5b60007fffffffff0000000000000000000000000000000000000000000000000000000082169050919050565b611fd181611f9c565b8114611fdc57600080fd5b50565b600081359050611fee81611fc8565b92915050565b60006020828403121561200a57612009611f92565b5b600061201884828501611fdf565b91505092915050565b60008115159050919050565b61203681612021565b82525050565b6000602082019050612051600083018461202d565b92915050565b6000819050919050565b61206a81612057565b82525050565b60006020820190506120856000830184612061565b92915050565b600081519050919050565b600082825260208201905092915050565b60005b838110156120c55780820151818401526020810190506120aa565b60008484015250505050565b6000601f19601f8301169050919050565b60006120ed8261208b565b6120f78185612096565b93506121078185602086016120a7565b612110816120d1565b840191505092915050565b6000602082019050818103600083015261213581846120e2565b905092915050565b61214681612057565b811461215157600080fd5b50565b6000813590506121638161213d565b92915050565b60006020828403121561217f5761217e611f92565b5b600061218d84828501612154565b91505092915050565b600073ffffffffffffffffffffffffffffffffffffffff82169050919050565b60006121c182612196565b9050919050565b6121d1816121b6565b82525050565b60006020820190506121ec60008301846121c8565b92915050565b6121fb816121b6565b811461220657600080fd5b50565b600081359050612218816121f2565b92915050565b6000806040838503121561223557612234611f92565b5b600061224385828601612209565b925050602061225485828601612154565b9150509250929050565b60008060006060848603121561227757612276611f92565b5b600061228586828701612209565b935050602061229686828701612209565b92505060406122a786828701612154565b9150509250925092565b600080fd5b600080fd5b7f4e487b7100000000000000000000000000000000000000000000000000000000600052604160045260246000fd5b6122f3826120d1565b810181811067ffffffffffffffff82111715612312576123116122bb565b5b80604052505050565b6000612325611f88565b905061233182826122ea565b919050565b600067ffffffffffffffff821115612351576123506122bb565b5b61235a826120d1565b9050602081019050919050565b82818337600083830152505050565b600061238961238484612336565b61231b565b9050828152602081018484840111156123a5576123a46122b6565b5b6123b0848285612367565b509392505050565b600082601f8301126123cd576123cc6122b1565b5b81356123dd848260208601612376565b91505092915050565b60008060008060008060c0878903121561240357612402611f92565b5b600087013567ffffffffffffffff81111561242157612420611f97565b5b61242d89828a016123b8565b965050602087013567ffffffffffffffff81111561244e5761244d611f97565b5b61245a89828a016123b8565b955050604061246b89828a01612154565b945050606061247c89828a01612154565b935050608087013567ffffffffffffffff81111561249d5761249c611f97565b5b6124a989828a016123b8565b92505060a087013567ffffffffffffffff8111156124ca576124c9611f97565b5b6124d689828a016123b8565b9150509295509295509295565b600060c08201905081810360008301526124fd81896120e2565b9050818103602083015261251181886120e2565b90506125206040830187612061565b61252d6060830186612061565b818103608083015261253f81856120e2565b905081810360a083015261255381846120e2565b9050979650505050505050565b600081519050919050565b600082825260208201905092915050565b6000819050602082019050919050565b600082825260208201905092915050565b60006125a88261208b565b6125b2818561258c565b93506125c28185602086016120a7565b6125cb816120d1565b840191505092915050565b6125df81612057565b82525050565b600060c0830160008301518482036000860152612602828261259d565b9150506020830151848203602086015261261c828261259d565b915050604083015161263160408601826125d6565b50606083015161264460608601826125d6565b506080830151848203608086015261265c828261259d565b91505060a083015184820360a0860152612676828261259d565b9150508091505092915050565b600061268f83836125e5565b905092915050565b6000602082019050919050565b60006126af82612560565b6126b9818561256b565b9350836020820285016126cb8561257c565b8060005b8581101561270757848403895281516126e88582612683565b94506126f383612697565b925060208a019950506001810190506126cf565b50829750879550505050505092915050565b6000602082019050818103600083015261273381846126a4565b905092915050565b60006020828403121561275157612750611f92565b5b600061275f84828501612209565b91505092915050565b61277181612021565b811461277c57600080fd5b50565b60008135905061278e81612768565b92915050565b600080604083850312156127ab576127aa611f92565b5b60006127b985828601612209565b92505060206127ca8582860161277f565b9150509250929050565b600067ffffffffffffffff8211156127ef576127ee6122bb565b5b6127f8826120d1565b9050602081019050919050565b6000612818612813846127d4565b61231b565b905082815260208101848484011115612834576128336122b6565b5b61283f848285612367565b509392505050565b600082601f83011261285c5761285b6122b1565b5b813561286c848260208601612805565b91505092915050565b6000806000806080858703121561288f5761288e611f92565b5b600061289d87828801612209565b94505060206128ae87828801612209565b93505060406128bf87828801612154565b925050606085013567ffffffffffffffff8111156128e0576128df611f97565b5b6128ec87828801612847565b91505092959194509250565b6000806040838503121561290f5761290e611f92565b5b600061291d85828601612209565b925050602061292e85828601612209565b9150509250929050565b7f4e487b7100000000000000000000000000000000000000000000000000000000600052602260045260246000fd5b6000600282049050600182168061297f57607f821691505b60208210810361299257612991612938565b5b50919050565b60006060820190506129ad60008301866121c8565b6129ba6020830185612061565b6129c760408301846121c8565b949350505050565b7f4e487b7100000000000000000000000000000000000000000000000000000000600052601160045260246000fd5b6000612a0982612057565b9150612a1483612057565b9250828201905080821115612a2c57612a2b6129cf565b5b92915050565b60008190508160005260206000209050919050565b60006020601f8301049050919050565b600082821b905092915050565b600060088302612a947fffffffffffffffffffffffffffffffffffffffffffffffffffffffffffffffff82612a57565b612a9e8683612a57565b95508019841693508086168417925050509392505050565b6000819050919050565b6000612adb612ad6612ad184612057565b612ab6565b612057565b9050919050565b6000819050919050565b612af583612ac0565b612b09612b0182612ae2565b848454612a64565b825550505050565b600090565b612b1e612b11565b612b29818484612aec565b505050565b5b81811015612b4d57612b42600082612b16565b600181019050612b2f565b5050565b601f821115612b9257612b6381612a32565b612b6c84612a47565b81016020851015612b7b578190505b612b8f612b8785612a47565b830182612b2e565b50505b505050565b600082821c905092915050565b6000612bb560001984600802612b97565b1980831691505092915050565b6000612bce8383612ba4565b9150826002028217905092915050565b612be78261208b565b67ffffffffffffffff811115612c0057612bff6122bb565b5b612c0a8254612967565b612c15828285612b51565b600060209050601f831160018114612c485760008415612c36578287015190505b612c408582612bc2565b865550612ca8565b601f198416612c5686612a32565b60005b82811015612c7e57848901518255600182019150602085019450602081019050612c59565b86831015612c9b5784890151612c97601f891682612ba4565b8355505b6001600288020188555050505b505050505050565b6000612cbb82612057565b91507fffffffffffffffffffffffffffffffffffffffffffffffffffffffffffffffff8203612ced57612cec6129cf565b5b600182019050919050565b600060e082019050612d0d600083018a612061565b8181036020830152612d1f81896120e2565b90508181036040830152612d3381886120e2565b9050612d426060830187612061565b612d4f6080830186612061565b81810360a0830152612d6181856120e2565b905081810360c0830152612d7581846120e2565b905098975050505050505050565b7f4e487b7100000000000000000000000000000000000000000000000000000000600052603260045260246000fd5b600081905092915050565b6000612dc88261208b565b612dd28185612db2565b9350612de28185602086016120a7565b80840191505092915050565b6000612dfa8285612dbd565b9150612e068284612dbd565b91508190509392505050565b600081519050919050565b600082825260208201905092915050565b6000612e3982612e12565b612e438185612e1d565b9350612e538185602086016120a7565b612e5c816120d1565b840191505092915050565b6000608082019050612e7c60008301876121c8565b612e8960208301866121c8565b612e966040830185612061565b8181036060830152612ea88184612e2e565b905095945050505050565b600081519050612ec281611fc8565b92915050565b600060208284031215612ede57612edd611f92565b5b6000612eec84828501612eb3565b91505092915050565b7f4e487b7100000000000000000000000000000000000000000000000000000000600052601260045260246000fd5b6000604082019050612f3960008301856121c8565b612f466020830184612061565b939250505056fea2646970667358221220824b909676f05f42752adb78ec174c0388a44b0322ce6e9b1801eafab6afeadb64736f6c63430008140033",
  "linkReferences": {},
  "deployedLinkReferences": {}
}